{
  "_format": "hh-sol-artifact-1",
  "contractName": "Msical1155",
  "sourceName": "contracts/Msical1155.sol",
  "abi": [
    {
      "inputs": [
        {
          "internalType": "address",
          "name": "defaultAdmin",
          "type": "address"
        },
        {
          "internalType": "address",
          "name": "pauser",
          "type": "address"
        },
        {
          "internalType": "address",
          "name": "minter",
          "type": "address"
        }
      ],
      "stateMutability": "nonpayable",
      "type": "constructor"
    },
    {
      "inputs": [],
      "name": "AccessControlBadConfirmation",
      "type": "error"
    },
    {
      "inputs": [
        {
          "internalType": "address",
          "name": "account",
          "type": "address"
        },
        {
          "internalType": "bytes32",
          "name": "neededRole",
          "type": "bytes32"
        }
      ],
      "name": "AccessControlUnauthorizedAccount",
      "type": "error"
    },
    {
      "inputs": [
        {
          "internalType": "address",
          "name": "sender",
          "type": "address"
        },
        {
          "internalType": "uint256",
          "name": "balance",
          "type": "uint256"
        },
        {
          "internalType": "uint256",
          "name": "needed",
          "type": "uint256"
        },
        {
          "internalType": "uint256",
          "name": "tokenId",
          "type": "uint256"
        }
      ],
      "name": "ERC1155InsufficientBalance",
      "type": "error"
    },
    {
      "inputs": [
        {
          "internalType": "address",
          "name": "approver",
          "type": "address"
        }
      ],
      "name": "ERC1155InvalidApprover",
      "type": "error"
    },
    {
      "inputs": [
        {
          "internalType": "uint256",
          "name": "idsLength",
          "type": "uint256"
        },
        {
          "internalType": "uint256",
          "name": "valuesLength",
          "type": "uint256"
        }
      ],
      "name": "ERC1155InvalidArrayLength",
      "type": "error"
    },
    {
      "inputs": [
        {
          "internalType": "address",
          "name": "operator",
          "type": "address"
        }
      ],
      "name": "ERC1155InvalidOperator",
      "type": "error"
    },
    {
      "inputs": [
        {
          "internalType": "address",
          "name": "receiver",
          "type": "address"
        }
      ],
      "name": "ERC1155InvalidReceiver",
      "type": "error"
    },
    {
      "inputs": [
        {
          "internalType": "address",
          "name": "sender",
          "type": "address"
        }
      ],
      "name": "ERC1155InvalidSender",
      "type": "error"
    },
    {
      "inputs": [
        {
          "internalType": "address",
          "name": "operator",
          "type": "address"
        },
        {
          "internalType": "address",
          "name": "owner",
          "type": "address"
        }
      ],
      "name": "ERC1155MissingApprovalForAll",
      "type": "error"
    },
    {
      "inputs": [],
      "name": "EnforcedPause",
      "type": "error"
    },
    {
      "inputs": [],
      "name": "ExpectedPause",
      "type": "error"
    },
    {
      "anonymous": false,
      "inputs": [
        {
          "indexed": true,
          "internalType": "address",
          "name": "account",
          "type": "address"
        },
        {
          "indexed": true,
          "internalType": "address",
          "name": "operator",
          "type": "address"
        },
        {
          "indexed": false,
          "internalType": "bool",
          "name": "approved",
          "type": "bool"
        }
      ],
      "name": "ApprovalForAll",
      "type": "event"
    },
    {
      "anonymous": false,
      "inputs": [
        {
          "indexed": false,
          "internalType": "address",
          "name": "account",
          "type": "address"
        }
      ],
      "name": "Paused",
      "type": "event"
    },
    {
      "anonymous": false,
      "inputs": [
        {
          "indexed": true,
          "internalType": "bytes32",
          "name": "role",
          "type": "bytes32"
        },
        {
          "indexed": true,
          "internalType": "bytes32",
          "name": "previousAdminRole",
          "type": "bytes32"
        },
        {
          "indexed": true,
          "internalType": "bytes32",
          "name": "newAdminRole",
          "type": "bytes32"
        }
      ],
      "name": "RoleAdminChanged",
      "type": "event"
    },
    {
      "anonymous": false,
      "inputs": [
        {
          "indexed": true,
          "internalType": "bytes32",
          "name": "role",
          "type": "bytes32"
        },
        {
          "indexed": true,
          "internalType": "address",
          "name": "account",
          "type": "address"
        },
        {
          "indexed": true,
          "internalType": "address",
          "name": "sender",
          "type": "address"
        }
      ],
      "name": "RoleGranted",
      "type": "event"
    },
    {
      "anonymous": false,
      "inputs": [
        {
          "indexed": true,
          "internalType": "bytes32",
          "name": "role",
          "type": "bytes32"
        },
        {
          "indexed": true,
          "internalType": "address",
          "name": "account",
          "type": "address"
        },
        {
          "indexed": true,
          "internalType": "address",
          "name": "sender",
          "type": "address"
        }
      ],
      "name": "RoleRevoked",
      "type": "event"
    },
    {
      "anonymous": false,
      "inputs": [
        {
          "indexed": true,
          "internalType": "address",
          "name": "operator",
          "type": "address"
        },
        {
          "indexed": true,
          "internalType": "address",
          "name": "from",
          "type": "address"
        },
        {
          "indexed": true,
          "internalType": "address",
          "name": "to",
          "type": "address"
        },
        {
          "indexed": false,
          "internalType": "uint256[]",
          "name": "ids",
          "type": "uint256[]"
        },
        {
          "indexed": false,
          "internalType": "uint256[]",
          "name": "values",
          "type": "uint256[]"
        }
      ],
      "name": "TransferBatch",
      "type": "event"
    },
    {
      "anonymous": false,
      "inputs": [
        {
          "indexed": true,
          "internalType": "address",
          "name": "operator",
          "type": "address"
        },
        {
          "indexed": true,
          "internalType": "address",
          "name": "from",
          "type": "address"
        },
        {
          "indexed": true,
          "internalType": "address",
          "name": "to",
          "type": "address"
        },
        {
          "indexed": false,
          "internalType": "uint256",
          "name": "id",
          "type": "uint256"
        },
        {
          "indexed": false,
          "internalType": "uint256",
          "name": "value",
          "type": "uint256"
        }
      ],
      "name": "TransferSingle",
      "type": "event"
    },
    {
      "anonymous": false,
      "inputs": [
        {
          "indexed": false,
          "internalType": "string",
          "name": "value",
          "type": "string"
        },
        {
          "indexed": true,
          "internalType": "uint256",
          "name": "id",
          "type": "uint256"
        }
      ],
      "name": "URI",
      "type": "event"
    },
    {
      "anonymous": false,
      "inputs": [
        {
          "indexed": false,
          "internalType": "address",
          "name": "account",
          "type": "address"
        }
      ],
      "name": "Unpaused",
      "type": "event"
    },
    {
      "inputs": [],
      "name": "DEFAULT_ADMIN_ROLE",
      "outputs": [
        {
          "internalType": "bytes32",
          "name": "",
          "type": "bytes32"
        }
      ],
      "stateMutability": "view",
      "type": "function"
    },
    {
      "inputs": [],
      "name": "MINTER_ROLE",
      "outputs": [
        {
          "internalType": "bytes32",
          "name": "",
          "type": "bytes32"
        }
      ],
      "stateMutability": "view",
      "type": "function"
    },
    {
      "inputs": [],
      "name": "PAUSER_ROLE",
      "outputs": [
        {
          "internalType": "bytes32",
          "name": "",
          "type": "bytes32"
        }
      ],
      "stateMutability": "view",
      "type": "function"
    },
    {
      "inputs": [],
      "name": "URI_SETTER_ROLE",
      "outputs": [
        {
          "internalType": "bytes32",
          "name": "",
          "type": "bytes32"
        }
      ],
      "stateMutability": "view",
      "type": "function"
    },
    {
      "inputs": [
        {
          "internalType": "address",
          "name": "account",
          "type": "address"
        },
        {
          "internalType": "uint256",
          "name": "id",
          "type": "uint256"
        }
      ],
      "name": "balanceOf",
      "outputs": [
        {
          "internalType": "uint256",
          "name": "",
          "type": "uint256"
        }
      ],
      "stateMutability": "view",
      "type": "function"
    },
    {
      "inputs": [
        {
          "internalType": "address[]",
          "name": "accounts",
          "type": "address[]"
        },
        {
          "internalType": "uint256[]",
          "name": "ids",
          "type": "uint256[]"
        }
      ],
      "name": "balanceOfBatch",
      "outputs": [
        {
          "internalType": "uint256[]",
          "name": "",
          "type": "uint256[]"
        }
      ],
      "stateMutability": "view",
      "type": "function"
    },
    {
      "inputs": [
        {
          "internalType": "address",
          "name": "account",
          "type": "address"
        },
        {
          "internalType": "uint256",
          "name": "id",
          "type": "uint256"
        },
        {
          "internalType": "uint256",
          "name": "value",
          "type": "uint256"
        }
      ],
      "name": "burn",
      "outputs": [],
      "stateMutability": "nonpayable",
      "type": "function"
    },
    {
      "inputs": [
        {
          "internalType": "address",
          "name": "account",
          "type": "address"
        },
        {
          "internalType": "uint256[]",
          "name": "ids",
          "type": "uint256[]"
        },
        {
          "internalType": "uint256[]",
          "name": "values",
          "type": "uint256[]"
        }
      ],
      "name": "burnBatch",
      "outputs": [],
      "stateMutability": "nonpayable",
      "type": "function"
    },
    {
      "inputs": [
        {
          "internalType": "uint256",
          "name": "id",
          "type": "uint256"
        }
      ],
      "name": "exists",
      "outputs": [
        {
          "internalType": "bool",
          "name": "",
          "type": "bool"
        }
      ],
      "stateMutability": "view",
      "type": "function"
    },
    {
      "inputs": [
        {
          "internalType": "bytes32",
          "name": "role",
          "type": "bytes32"
        }
      ],
      "name": "getRoleAdmin",
      "outputs": [
        {
          "internalType": "bytes32",
          "name": "",
          "type": "bytes32"
        }
      ],
      "stateMutability": "view",
      "type": "function"
    },
    {
      "inputs": [
        {
          "internalType": "bytes32",
          "name": "role",
          "type": "bytes32"
        },
        {
          "internalType": "address",
          "name": "account",
          "type": "address"
        }
      ],
      "name": "grantRole",
      "outputs": [],
      "stateMutability": "nonpayable",
      "type": "function"
    },
    {
      "inputs": [
        {
          "internalType": "bytes32",
          "name": "role",
          "type": "bytes32"
        },
        {
          "internalType": "address",
          "name": "account",
          "type": "address"
        }
      ],
      "name": "hasRole",
      "outputs": [
        {
          "internalType": "bool",
          "name": "",
          "type": "bool"
        }
      ],
      "stateMutability": "view",
      "type": "function"
    },
    {
      "inputs": [
        {
          "internalType": "address",
          "name": "account",
          "type": "address"
        },
        {
          "internalType": "address",
          "name": "operator",
          "type": "address"
        }
      ],
      "name": "isApprovedForAll",
      "outputs": [
        {
          "internalType": "bool",
          "name": "",
          "type": "bool"
        }
      ],
      "stateMutability": "view",
      "type": "function"
    },
    {
      "inputs": [
        {
          "internalType": "address",
          "name": "account",
          "type": "address"
        },
        {
          "internalType": "uint256",
          "name": "id",
          "type": "uint256"
        },
        {
          "internalType": "uint256",
          "name": "amount",
          "type": "uint256"
        },
        {
          "internalType": "string",
          "name": "_uri",
          "type": "string"
        },
        {
          "internalType": "bytes",
          "name": "data",
          "type": "bytes"
        }
      ],
      "name": "mint",
      "outputs": [],
      "stateMutability": "nonpayable",
      "type": "function"
    },
    {
      "inputs": [
        {
          "internalType": "address",
          "name": "to",
          "type": "address"
        },
        {
          "internalType": "uint256[]",
          "name": "ids",
          "type": "uint256[]"
        },
        {
          "internalType": "uint256[]",
          "name": "amounts",
          "type": "uint256[]"
        },
        {
          "internalType": "string[]",
          "name": "uris",
          "type": "string[]"
        },
        {
          "internalType": "bytes",
          "name": "data",
          "type": "bytes"
        }
      ],
      "name": "mintBatch",
      "outputs": [],
      "stateMutability": "nonpayable",
      "type": "function"
    },
    {
      "inputs": [],
      "name": "pause",
      "outputs": [],
      "stateMutability": "nonpayable",
      "type": "function"
    },
    {
      "inputs": [],
      "name": "paused",
      "outputs": [
        {
          "internalType": "bool",
          "name": "",
          "type": "bool"
        }
      ],
      "stateMutability": "view",
      "type": "function"
    },
    {
      "inputs": [
        {
          "internalType": "bytes32",
          "name": "role",
          "type": "bytes32"
        },
        {
          "internalType": "address",
          "name": "callerConfirmation",
          "type": "address"
        }
      ],
      "name": "renounceRole",
      "outputs": [],
      "stateMutability": "nonpayable",
      "type": "function"
    },
    {
      "inputs": [
        {
          "internalType": "bytes32",
          "name": "role",
          "type": "bytes32"
        },
        {
          "internalType": "address",
          "name": "account",
          "type": "address"
        }
      ],
      "name": "revokeRole",
      "outputs": [],
      "stateMutability": "nonpayable",
      "type": "function"
    },
    {
      "inputs": [
        {
          "internalType": "address",
          "name": "from",
          "type": "address"
        },
        {
          "internalType": "address",
          "name": "to",
          "type": "address"
        },
        {
          "internalType": "uint256[]",
          "name": "ids",
          "type": "uint256[]"
        },
        {
          "internalType": "uint256[]",
          "name": "values",
          "type": "uint256[]"
        },
        {
          "internalType": "bytes",
          "name": "data",
          "type": "bytes"
        }
      ],
      "name": "safeBatchTransferFrom",
      "outputs": [],
      "stateMutability": "nonpayable",
      "type": "function"
    },
    {
      "inputs": [
        {
          "internalType": "address",
          "name": "from",
          "type": "address"
        },
        {
          "internalType": "address",
          "name": "to",
          "type": "address"
        },
        {
          "internalType": "uint256",
          "name": "id",
          "type": "uint256"
        },
        {
          "internalType": "uint256",
          "name": "value",
          "type": "uint256"
        },
        {
          "internalType": "bytes",
          "name": "data",
          "type": "bytes"
        }
      ],
      "name": "safeTransferFrom",
      "outputs": [],
      "stateMutability": "nonpayable",
      "type": "function"
    },
    {
      "inputs": [
        {
          "internalType": "address",
          "name": "operator",
          "type": "address"
        },
        {
          "internalType": "bool",
          "name": "approved",
          "type": "bool"
        }
      ],
      "name": "setApprovalForAll",
      "outputs": [],
      "stateMutability": "nonpayable",
      "type": "function"
    },
    {
      "inputs": [
        {
          "internalType": "string",
          "name": "newuri",
          "type": "string"
        }
      ],
      "name": "setURI",
      "outputs": [],
      "stateMutability": "nonpayable",
      "type": "function"
    },
    {
      "inputs": [
        {
          "internalType": "bytes4",
          "name": "interfaceId",
          "type": "bytes4"
        }
      ],
      "name": "supportsInterface",
      "outputs": [
        {
          "internalType": "bool",
          "name": "",
          "type": "bool"
        }
      ],
      "stateMutability": "view",
      "type": "function"
    },
    {
      "inputs": [],
      "name": "totalSupply",
      "outputs": [
        {
          "internalType": "uint256",
          "name": "",
          "type": "uint256"
        }
      ],
      "stateMutability": "view",
      "type": "function"
    },
    {
      "inputs": [
        {
          "internalType": "uint256",
          "name": "id",
          "type": "uint256"
        }
      ],
      "name": "totalSupply",
      "outputs": [
        {
          "internalType": "uint256",
          "name": "",
          "type": "uint256"
        }
      ],
      "stateMutability": "view",
      "type": "function"
    },
    {
      "inputs": [],
      "name": "unpause",
      "outputs": [],
      "stateMutability": "nonpayable",
      "type": "function"
    },
    {
      "inputs": [
        {
          "internalType": "uint256",
          "name": "id",
          "type": "uint256"
        }
      ],
      "name": "uri",
      "outputs": [
        {
          "internalType": "string",
          "name": "",
          "type": "string"
        }
      ],
      "stateMutability": "view",
      "type": "function"
    }
  ],
  "bytecode": "0x60806040523480156200001157600080fd5b506040516200402c3803806200402c8339818101604052810190620000379190620002ef565b604051806020016040528060008152506200005881620000f960201b60201c565b506000600460006101000a81548160ff021916908315150217905550620000896000801b846200010e60201b60201c565b50620000bc7f65d7a28e3265b37a6474929f336521b332c1681b933f6cb9f3376673440d862a836200010e60201b60201c565b50620000ef7f9f2df0fed2c77648de5860a4cc508cd0818c85b8b8a1ab4ceeef8d981c8956a6826200010e60201b60201c565b50505050620006ac565b80600290816200010a9190620005c5565b5050565b60006200012283836200021260201b60201c565b620002075760016003600085815260200190815260200160002060000160008473ffffffffffffffffffffffffffffffffffffffff1673ffffffffffffffffffffffffffffffffffffffff16815260200190815260200160002060006101000a81548160ff021916908315150217905550620001a36200027d60201b60201c565b73ffffffffffffffffffffffffffffffffffffffff168273ffffffffffffffffffffffffffffffffffffffff16847f2f8788117e7eff1d82e926ec794901d17c78024a50270940304540a733656f0d60405160405180910390a4600190506200020c565b600090505b92915050565b60006003600084815260200190815260200160002060000160008373ffffffffffffffffffffffffffffffffffffffff1673ffffffffffffffffffffffffffffffffffffffff16815260200190815260200160002060009054906101000a900460ff16905092915050565b600033905090565b600080fd5b600073ffffffffffffffffffffffffffffffffffffffff82169050919050565b6000620002b7826200028a565b9050919050565b620002c981620002aa565b8114620002d557600080fd5b50565b600081519050620002e981620002be565b92915050565b6000806000606084860312156200030b576200030a62000285565b5b60006200031b86828701620002d8565b93505060206200032e86828701620002d8565b92505060406200034186828701620002d8565b9150509250925092565b600081519050919050565b7f4e487b7100000000000000000000000000000000000000000000000000000000600052604160045260246000fd5b7f4e487b7100000000000000000000000000000000000000000000000000000000600052602260045260246000fd5b60006002820490506001821680620003cd57607f821691505b602082108103620003e357620003e262000385565b5b50919050565b60008190508160005260206000209050919050565b60006020601f8301049050919050565b600082821b905092915050565b6000600883026200044d7fffffffffffffffffffffffffffffffffffffffffffffffffffffffffffffffff826200040e565b6200045986836200040e565b95508019841693508086168417925050509392505050565b6000819050919050565b6000819050919050565b6000620004a6620004a06200049a8462000471565b6200047b565b62000471565b9050919050565b6000819050919050565b620004c28362000485565b620004da620004d182620004ad565b8484546200041b565b825550505050565b600090565b620004f1620004e2565b620004fe818484620004b7565b505050565b5b8181101562000526576200051a600082620004e7565b60018101905062000504565b5050565b601f82111562000575576200053f81620003e9565b6200054a84620003fe565b810160208510156200055a578190505b620005726200056985620003fe565b83018262000503565b50505b505050565b600082821c905092915050565b60006200059a600019846008026200057a565b1980831691505092915050565b6000620005b5838362000587565b9150826002028217905092915050565b620005d0826200034b565b67ffffffffffffffff811115620005ec57620005eb62000356565b5b620005f88254620003b4565b620006058282856200052a565b600060209050601f8311600181146200063d576000841562000628578287015190505b620006348582620005a7565b865550620006a4565b601f1984166200064d86620003e9565b60005b82811015620006775784890151825560018201915060208501945060208101905062000650565b8683101562000697578489015162000693601f89168262000587565b8355505b6001600288020188555050505b505050505050565b61397080620006bc6000396000f3fe608060405234801561001057600080fd5b50600436106101c35760003560e01c80637f345710116100f9578063bd85b03911610097578063e63ab1e911610071578063e63ab1e9146104ee578063e985e9c51461050c578063f242432a1461053c578063f5298aca14610558576101c3565b8063bd85b03914610484578063d5391393146104b4578063d547741f146104d2576101c3565b8063a217fddf116100d3578063a217fddf14610412578063a22cb46514610430578063a4b645eb1461044c578063b9571e8414610468576101c3565b80637f345710146103ba5780638456cb59146103d857806391d14854146103e2576101c3565b80632f2ff15d116101665780634e1273f4116101405780634e1273f4146103205780634f558e79146103505780635c975abb146103805780636b20c4541461039e576101c3565b80632f2ff15d146102de57806336568abe146102fa5780633f4ba83a14610316576101c3565b80630e89341c116101a25780630e89341c1461024457806318160ddd14610274578063248a9ca3146102925780632eb2c2d6146102c2576101c3565b8062fdd58e146101c857806301ffc9a7146101f857806302fe530514610228575b600080fd5b6101e260048036038101906101dd91906124a3565b610574565b6040516101ef91906124f2565b60405180910390f35b610212600480360381019061020d9190612565565b6105ce565b60405161021f91906125ad565b60405180910390f35b610242600480360381019061023d919061270e565b6105e0565b005b61025e60048036038101906102599190612757565b610617565b60405161026b9190612803565b60405180910390f35b61027c6106bc565b60405161028991906124f2565b60405180910390f35b6102ac60048036038101906102a7919061285b565b6106c6565b6040516102b99190612897565b60405180910390f35b6102dc60048036038101906102d79190612a1b565b6106e6565b005b6102f860048036038101906102f39190612aea565b61078e565b005b610314600480360381019061030f9190612aea565b6107b0565b005b61031e61082b565b005b61033a60048036038101906103359190612bed565b610860565b6040516103479190612d23565b60405180910390f35b61036a60048036038101906103659190612757565b61096f565b60405161037791906125ad565b60405180910390f35b610388610983565b60405161039591906125ad565b60405180910390f35b6103b860048036038101906103b39190612d45565b61099a565b005b6103c2610a46565b6040516103cf9190612897565b60405180910390f35b6103e0610a6a565b005b6103fc60048036038101906103f79190612aea565b610a9f565b60405161040991906125ad565b60405180910390f35b61041a610b0a565b6040516104279190612897565b60405180910390f35b61044a60048036038101906104459190612dfc565b610b11565b005b61046660048036038101906104619190612e97565b610b27565b005b610482600480360381019061047d9190612fa3565b610b89565b005b61049e60048036038101906104999190612757565b610c4a565b6040516104ab91906124f2565b60405180910390f35b6104bc610c67565b6040516104c99190612897565b60405180910390f35b6104ec60048036038101906104e79190612aea565b610c8b565b005b6104f6610cad565b6040516105039190612897565b60405180910390f35b61052660048036038101906105219190613091565b610cd1565b60405161053391906125ad565b60405180910390f35b610556600480360381019061055191906130d1565b610d65565b005b610572600480360381019061056d9190613168565b610e0d565b005b600080600083815260200190815260200160002060008473ffffffffffffffffffffffffffffffffffffffff1673ffffffffffffffffffffffffffffffffffffffff16815260200190815260200160002054905092915050565b60006105d982610eb9565b9050919050565b7f7804d923f43a17d325d77e781528e0793b2edd9890ab45fc64efd7b4b427744c61060a81610f33565b61061382610f47565b5050565b6060600760008381526020019081526020016000208054610637906131ea565b80601f0160208091040260200160405190810160405280929190818152602001828054610663906131ea565b80156106b05780601f10610685576101008083540402835291602001916106b0565b820191906000526020600020905b81548152906001019060200180831161069357829003601f168201915b50505050509050919050565b6000600654905090565b600060036000838152602001908152602001600020600101549050919050565b60006106f0610f5a565b90508073ffffffffffffffffffffffffffffffffffffffff168673ffffffffffffffffffffffffffffffffffffffff161415801561073557506107338682610cd1565b155b156107795780866040517fe237d92200000000000000000000000000000000000000000000000000000000815260040161077092919061322a565b60405180910390fd5b6107868686868686610f62565b505050505050565b610797826106c6565b6107a081610f33565b6107aa838361105a565b50505050565b6107b8610f5a565b73ffffffffffffffffffffffffffffffffffffffff168173ffffffffffffffffffffffffffffffffffffffff161461081c576040517f6697b23200000000000000000000000000000000000000000000000000000000815260040160405180910390fd5b610826828261114c565b505050565b7f65d7a28e3265b37a6474929f336521b332c1681b933f6cb9f3376673440d862a61085581610f33565b61085d61123f565b50565b606081518351146108ac57815183516040517f5b0599910000000000000000000000000000000000000000000000000000000081526004016108a3929190613253565b60405180910390fd5b6000835167ffffffffffffffff8111156108c9576108c86125e3565b5b6040519080825280602002602001820160405280156108f75781602001602082028036833780820191505090505b50905060005b84518110156109645761093461091c82876112a290919063ffffffff16565b61092f83876112b690919063ffffffff16565b610574565b8282815181106109475761094661327c565b5b6020026020010181815250508061095d906132da565b90506108fd565b508091505092915050565b60008061097b83610c4a565b119050919050565b6000600460009054906101000a900460ff16905090565b6109a2610f5a565b73ffffffffffffffffffffffffffffffffffffffff168373ffffffffffffffffffffffffffffffffffffffff16141580156109eb57506109e9836109e4610f5a565b610cd1565b155b15610a36576109f8610f5a565b836040517fe237d922000000000000000000000000000000000000000000000000000000008152600401610a2d92919061322a565b60405180910390fd5b610a418383836112ca565b505050565b7f7804d923f43a17d325d77e781528e0793b2edd9890ab45fc64efd7b4b427744c81565b7f65d7a28e3265b37a6474929f336521b332c1681b933f6cb9f3376673440d862a610a9481610f33565b610a9c61135e565b50565b60006003600084815260200190815260200160002060000160008373ffffffffffffffffffffffffffffffffffffffff1673ffffffffffffffffffffffffffffffffffffffff16815260200190815260200160002060009054906101000a900460ff16905092915050565b6000801b81565b610b23610b1c610f5a565b83836113c1565b5050565b7f9f2df0fed2c77648de5860a4cc508cd0818c85b8b8a1ab4ceeef8d981c8956a6610b5181610f33565b610b5d87878785611531565b8383600760008981526020019081526020016000209182610b7f9291906134d9565b5050505050505050565b7f9f2df0fed2c77648de5860a4cc508cd0818c85b8b8a1ab4ceeef8d981c8956a6610bb381610f33565b610bbf878787856115ca565b60005b84849050811015610c4057848482818110610be057610bdf61327c565b5b9050602002810190610bf291906135b8565b600760008a8581518110610c0957610c0861327c565b5b602002602001015181526020019081526020016000209182610c2c9291906134d9565b508080610c38906132da565b915050610bc2565b5050505050505050565b600060056000838152602001908152602001600020549050919050565b7f9f2df0fed2c77648de5860a4cc508cd0818c85b8b8a1ab4ceeef8d981c8956a681565b610c94826106c6565b610c9d81610f33565b610ca7838361114c565b50505050565b7f65d7a28e3265b37a6474929f336521b332c1681b933f6cb9f3376673440d862a81565b6000600160008473ffffffffffffffffffffffffffffffffffffffff1673ffffffffffffffffffffffffffffffffffffffff16815260200190815260200160002060008373ffffffffffffffffffffffffffffffffffffffff1673ffffffffffffffffffffffffffffffffffffffff16815260200190815260200160002060009054906101000a900460ff16905092915050565b6000610d6f610f5a565b90508073ffffffffffffffffffffffffffffffffffffffff168673ffffffffffffffffffffffffffffffffffffffff1614158015610db45750610db28682610cd1565b155b15610df85780866040517fe237d922000000000000000000000000000000000000000000000000000000008152600401610def92919061322a565b60405180910390fd5b610e058686868686611650565b505050505050565b610e15610f5a565b73ffffffffffffffffffffffffffffffffffffffff168373ffffffffffffffffffffffffffffffffffffffff1614158015610e5e5750610e5c83610e57610f5a565b610cd1565b155b15610ea957610e6b610f5a565b836040517fe237d922000000000000000000000000000000000000000000000000000000008152600401610ea092919061322a565b60405180910390fd5b610eb483838361175b565b505050565b60007f7965db0b000000000000000000000000000000000000000000000000000000007bffffffffffffffffffffffffffffffffffffffffffffffffffffffff1916827bffffffffffffffffffffffffffffffffffffffffffffffffffffffff19161480610f2c5750610f2b82611802565b5b9050919050565b610f4481610f3f610f5a565b6118e4565b50565b8060029081610f56919061361b565b5050565b600033905090565b600073ffffffffffffffffffffffffffffffffffffffff168473ffffffffffffffffffffffffffffffffffffffff1603610fd45760006040517f57f447ce000000000000000000000000000000000000000000000000000000008152600401610fcb91906136ed565b60405180910390fd5b600073ffffffffffffffffffffffffffffffffffffffff168573ffffffffffffffffffffffffffffffffffffffff16036110465760006040517f01a8351400000000000000000000000000000000000000000000000000000000815260040161103d91906136ed565b60405180910390fd5b6110538585858585611935565b5050505050565b60006110668383610a9f565b6111415760016003600085815260200190815260200160002060000160008473ffffffffffffffffffffffffffffffffffffffff1673ffffffffffffffffffffffffffffffffffffffff16815260200190815260200160002060006101000a81548160ff0219169083151502179055506110de610f5a565b73ffffffffffffffffffffffffffffffffffffffff168273ffffffffffffffffffffffffffffffffffffffff16847f2f8788117e7eff1d82e926ec794901d17c78024a50270940304540a733656f0d60405160405180910390a460019050611146565b600090505b92915050565b60006111588383610a9f565b156112345760006003600085815260200190815260200160002060000160008473ffffffffffffffffffffffffffffffffffffffff1673ffffffffffffffffffffffffffffffffffffffff16815260200190815260200160002060006101000a81548160ff0219169083151502179055506111d1610f5a565b73ffffffffffffffffffffffffffffffffffffffff168273ffffffffffffffffffffffffffffffffffffffff16847ff6391f5c32d9c69d2a47ea670b442974b53935d1edc7fd64eb21e047a839171b60405160405180910390a460019050611239565b600090505b92915050565b6112476119e7565b6000600460006101000a81548160ff0219169083151502179055507f5db9ee0a495bf2e6ff9c91a7834c1ba4fdd244a5e8aa4e537bd38aeae4b073aa61128b610f5a565b60405161129891906136ed565b60405180910390a1565b600060208202602084010151905092915050565b600060208202602084010151905092915050565b600073ffffffffffffffffffffffffffffffffffffffff168373ffffffffffffffffffffffffffffffffffffffff160361133c5760006040517f01a8351400000000000000000000000000000000000000000000000000000000815260040161133391906136ed565b60405180910390fd5b611359836000848460405180602001604052806000815250611935565b505050565b611366611a27565b6001600460006101000a81548160ff0219169083151502179055507f62e78cea01bee320cd4e420270b5ea74000d11b0c9f74754ebdbfc544b05a2586113aa610f5a565b6040516113b791906136ed565b60405180910390a1565b600073ffffffffffffffffffffffffffffffffffffffff168273ffffffffffffffffffffffffffffffffffffffff16036114335760006040517fced3e10000000000000000000000000000000000000000000000000000000000815260040161142a91906136ed565b60405180910390fd5b80600160008573ffffffffffffffffffffffffffffffffffffffff1673ffffffffffffffffffffffffffffffffffffffff16815260200190815260200160002060008473ffffffffffffffffffffffffffffffffffffffff1673ffffffffffffffffffffffffffffffffffffffff16815260200190815260200160002060006101000a81548160ff0219169083151502179055508173ffffffffffffffffffffffffffffffffffffffff168373ffffffffffffffffffffffffffffffffffffffff167f17307eab39ab6107e8899845ad3d59bd9653f200f220920489ca2b5937696c318360405161152491906125ad565b60405180910390a3505050565b600073ffffffffffffffffffffffffffffffffffffffff168473ffffffffffffffffffffffffffffffffffffffff16036115a35760006040517f57f447ce00000000000000000000000000000000000000000000000000000000815260040161159a91906136ed565b60405180910390fd5b6000806115b08585611a68565b915091506115c2600087848487611935565b505050505050565b600073ffffffffffffffffffffffffffffffffffffffff168473ffffffffffffffffffffffffffffffffffffffff160361163c5760006040517f57f447ce00000000000000000000000000000000000000000000000000000000815260040161163391906136ed565b60405180910390fd5b61164a600085858585611935565b50505050565b600073ffffffffffffffffffffffffffffffffffffffff168473ffffffffffffffffffffffffffffffffffffffff16036116c25760006040517f57f447ce0000000000000000000000000000000000000000000000000000000081526004016116b991906136ed565b60405180910390fd5b600073ffffffffffffffffffffffffffffffffffffffff168573ffffffffffffffffffffffffffffffffffffffff16036117345760006040517f01a8351400000000000000000000000000000000000000000000000000000000815260040161172b91906136ed565b60405180910390fd5b6000806117418585611a68565b915091506117528787848487611935565b50505050505050565b600073ffffffffffffffffffffffffffffffffffffffff168373ffffffffffffffffffffffffffffffffffffffff16036117cd5760006040517f01a835140000000000000000000000000000000000000000000000000000000081526004016117c491906136ed565b60405180910390fd5b6000806117da8484611a68565b915091506117fb856000848460405180602001604052806000815250611935565b5050505050565b60007fd9b67a26000000000000000000000000000000000000000000000000000000007bffffffffffffffffffffffffffffffffffffffffffffffffffffffff1916827bffffffffffffffffffffffffffffffffffffffffffffffffffffffff191614806118cd57507f0e89341c000000000000000000000000000000000000000000000000000000007bffffffffffffffffffffffffffffffffffffffffffffffffffffffff1916827bffffffffffffffffffffffffffffffffffffffffffffffffffffffff1916145b806118dd57506118dc82611a98565b5b9050919050565b6118ee8282610a9f565b6119315780826040517fe2517d3f000000000000000000000000000000000000000000000000000000008152600401611928929190613708565b60405180910390fd5b5050565b61194185858585611b02565b600073ffffffffffffffffffffffffffffffffffffffff168473ffffffffffffffffffffffffffffffffffffffff16146119e057600061197f610f5a565b905060018451036119cf5760006119a06000866112b690919063ffffffff16565b905060006119b86000866112b690919063ffffffff16565b90506119c8838989858589611b14565b50506119de565b6119dd818787878787611cc8565b5b505b5050505050565b6119ef610983565b611a25576040517f8dfc202b00000000000000000000000000000000000000000000000000000000815260040160405180910390fd5b565b611a2f610983565b15611a66576040517fd93c066500000000000000000000000000000000000000000000000000000000815260040160405180910390fd5b565b60608060405191506001825283602083015260408201905060018152826020820152604081016040529250929050565b60007f01ffc9a7000000000000000000000000000000000000000000000000000000007bffffffffffffffffffffffffffffffffffffffffffffffffffffffff1916827bffffffffffffffffffffffffffffffffffffffffffffffffffffffff1916149050919050565b611b0e84848484611e7c565b50505050565b60008473ffffffffffffffffffffffffffffffffffffffff163b1115611cc0578373ffffffffffffffffffffffffffffffffffffffff1663f23a6e6187878686866040518663ffffffff1660e01b8152600401611b75959493929190613786565b6020604051808303816000875af1925050508015611bb157506040513d601f19601f82011682018060405250810190611bae91906137f5565b60015b611c35573d8060008114611be1576040519150601f19603f3d011682016040523d82523d6000602084013e611be6565b606091505b506000815103611c2d57846040517f57f447ce000000000000000000000000000000000000000000000000000000008152600401611c2491906136ed565b60405180910390fd5b805181602001fd5b63f23a6e6160e01b7bffffffffffffffffffffffffffffffffffffffffffffffffffffffff1916817bffffffffffffffffffffffffffffffffffffffffffffffffffffffff191614611cbe57846040517f57f447ce000000000000000000000000000000000000000000000000000000008152600401611cb591906136ed565b60405180910390fd5b505b505050505050565b60008473ffffffffffffffffffffffffffffffffffffffff163b1115611e74578373ffffffffffffffffffffffffffffffffffffffff1663bc197c8187878686866040518663ffffffff1660e01b8152600401611d29959493929190613822565b6020604051808303816000875af1925050508015611d6557506040513d601f19601f82011682018060405250810190611d6291906137f5565b60015b611de9573d8060008114611d95576040519150601f19603f3d011682016040523d82523d6000602084013e611d9a565b606091505b506000815103611de157846040517f57f447ce000000000000000000000000000000000000000000000000000000008152600401611dd891906136ed565b60405180910390fd5b805181602001fd5b63bc197c8160e01b7bffffffffffffffffffffffffffffffffffffffffffffffffffffffff1916817bffffffffffffffffffffffffffffffffffffffffffffffffffffffff191614611e7257846040517f57f447ce000000000000000000000000000000000000000000000000000000008152600401611e6991906136ed565b60405180910390fd5b505b505050505050565b611e8884848484612033565b600073ffffffffffffffffffffffffffffffffffffffff168473ffffffffffffffffffffffffffffffffffffffff1603611f68576000805b8351811015611f4c576000838281518110611ede57611edd61327c565b5b602002602001015190508060056000878581518110611f0057611eff61327c565b5b602002602001015181526020019081526020016000206000828254611f25919061388a565b925050819055508083611f38919061388a565b92505080611f45906132da565b9050611ec0565b508060066000828254611f5f919061388a565b92505081905550505b600073ffffffffffffffffffffffffffffffffffffffff168373ffffffffffffffffffffffffffffffffffffffff160361202d576000805b835181101561201a576000838281518110611fbe57611fbd61327c565b5b602002602001015190508060056000878581518110611fe057611fdf61327c565b5b602002602001015181526020019081526020016000206000828254039250508190555080830192505080612013906132da565b9050611fa0565b5080600660008282540392505081905550505b50505050565b61203b611a27565b6120478484848461204d565b50505050565b805182511461209757815181516040517f5b05999100000000000000000000000000000000000000000000000000000000815260040161208e929190613253565b60405180910390fd5b60006120a1610f5a565b905060005b83518110156122b65760006120c482866112b690919063ffffffff16565b905060006120db83866112b690919063ffffffff16565b9050600073ffffffffffffffffffffffffffffffffffffffff168873ffffffffffffffffffffffffffffffffffffffff161461220857600080600084815260200190815260200160002060008a73ffffffffffffffffffffffffffffffffffffffff1673ffffffffffffffffffffffffffffffffffffffff168152602001908152602001600020549050818110156121b057888183856040517f03dee4c50000000000000000000000000000000000000000000000000000000081526004016121a794939291906138be565b60405180910390fd5b81810360008085815260200190815260200160002060008b73ffffffffffffffffffffffffffffffffffffffff1673ffffffffffffffffffffffffffffffffffffffff16815260200190815260200160002081905550505b600073ffffffffffffffffffffffffffffffffffffffff168773ffffffffffffffffffffffffffffffffffffffff16146122a3578060008084815260200190815260200160002060008973ffffffffffffffffffffffffffffffffffffffff1673ffffffffffffffffffffffffffffffffffffffff168152602001908152602001600020600082825461229b919061388a565b925050819055505b5050806122af906132da565b90506120a6565b5060018351036123755760006122d66000856112b690919063ffffffff16565b905060006122ee6000856112b690919063ffffffff16565b90508573ffffffffffffffffffffffffffffffffffffffff168773ffffffffffffffffffffffffffffffffffffffff168473ffffffffffffffffffffffffffffffffffffffff167fc3d58168c5ae7397731d063d5bbf3d657854427343f4c083240f7aacaa2d0f628585604051612366929190613253565b60405180910390a450506123f4565b8373ffffffffffffffffffffffffffffffffffffffff168573ffffffffffffffffffffffffffffffffffffffff168273ffffffffffffffffffffffffffffffffffffffff167f4a39dc06d4c0dbc64b70af90fd698a233a518aa5d07e595d983b8c0526c8f7fb86866040516123eb929190613903565b60405180910390a45b5050505050565b6000604051905090565b600080fd5b600080fd5b600073ffffffffffffffffffffffffffffffffffffffff82169050919050565b600061243a8261240f565b9050919050565b61244a8161242f565b811461245557600080fd5b50565b60008135905061246781612441565b92915050565b6000819050919050565b6124808161246d565b811461248b57600080fd5b50565b60008135905061249d81612477565b92915050565b600080604083850312156124ba576124b9612405565b5b60006124c885828601612458565b92505060206124d98582860161248e565b9150509250929050565b6124ec8161246d565b82525050565b600060208201905061250760008301846124e3565b92915050565b60007fffffffff0000000000000000000000000000000000000000000000000000000082169050919050565b6125428161250d565b811461254d57600080fd5b50565b60008135905061255f81612539565b92915050565b60006020828403121561257b5761257a612405565b5b600061258984828501612550565b91505092915050565b60008115159050919050565b6125a781612592565b82525050565b60006020820190506125c2600083018461259e565b92915050565b600080fd5b600080fd5b6000601f19601f8301169050919050565b7f4e487b7100000000000000000000000000000000000000000000000000000000600052604160045260246000fd5b61261b826125d2565b810181811067ffffffffffffffff8211171561263a576126396125e3565b5b80604052505050565b600061264d6123fb565b90506126598282612612565b919050565b600067ffffffffffffffff821115612679576126786125e3565b5b612682826125d2565b9050602081019050919050565b82818337600083830152505050565b60006126b16126ac8461265e565b612643565b9050828152602081018484840111156126cd576126cc6125cd565b5b6126d884828561268f565b509392505050565b600082601f8301126126f5576126f46125c8565b5b813561270584826020860161269e565b91505092915050565b60006020828403121561272457612723612405565b5b600082013567ffffffffffffffff8111156127425761274161240a565b5b61274e848285016126e0565b91505092915050565b60006020828403121561276d5761276c612405565b5b600061277b8482850161248e565b91505092915050565b600081519050919050565b600082825260208201905092915050565b60005b838110156127be5780820151818401526020810190506127a3565b60008484015250505050565b60006127d582612784565b6127df818561278f565b93506127ef8185602086016127a0565b6127f8816125d2565b840191505092915050565b6000602082019050818103600083015261281d81846127ca565b905092915050565b6000819050919050565b61283881612825565b811461284357600080fd5b50565b6000813590506128558161282f565b92915050565b60006020828403121561287157612870612405565b5b600061287f84828501612846565b91505092915050565b61289181612825565b82525050565b60006020820190506128ac6000830184612888565b92915050565b600067ffffffffffffffff8211156128cd576128cc6125e3565b5b602082029050602081019050919050565b600080fd5b60006128f66128f1846128b2565b612643565b90508083825260208201905060208402830185811115612919576129186128de565b5b835b81811015612942578061292e888261248e565b84526020840193505060208101905061291b565b5050509392505050565b600082601f830112612961576129606125c8565b5b81356129718482602086016128e3565b91505092915050565b600067ffffffffffffffff821115612995576129946125e3565b5b61299e826125d2565b9050602081019050919050565b60006129be6129b98461297a565b612643565b9050828152602081018484840111156129da576129d96125cd565b5b6129e584828561268f565b509392505050565b600082601f830112612a0257612a016125c8565b5b8135612a128482602086016129ab565b91505092915050565b600080600080600060a08688031215612a3757612a36612405565b5b6000612a4588828901612458565b9550506020612a5688828901612458565b945050604086013567ffffffffffffffff811115612a7757612a7661240a565b5b612a838882890161294c565b935050606086013567ffffffffffffffff811115612aa457612aa361240a565b5b612ab08882890161294c565b925050608086013567ffffffffffffffff811115612ad157612ad061240a565b5b612add888289016129ed565b9150509295509295909350565b60008060408385031215612b0157612b00612405565b5b6000612b0f85828601612846565b9250506020612b2085828601612458565b9150509250929050565b600067ffffffffffffffff821115612b4557612b446125e3565b5b602082029050602081019050919050565b6000612b69612b6484612b2a565b612643565b90508083825260208201905060208402830185811115612b8c57612b8b6128de565b5b835b81811015612bb55780612ba18882612458565b845260208401935050602081019050612b8e565b5050509392505050565b600082601f830112612bd457612bd36125c8565b5b8135612be4848260208601612b56565b91505092915050565b60008060408385031215612c0457612c03612405565b5b600083013567ffffffffffffffff811115612c2257612c2161240a565b5b612c2e85828601612bbf565b925050602083013567ffffffffffffffff811115612c4f57612c4e61240a565b5b612c5b8582860161294c565b9150509250929050565b600081519050919050565b600082825260208201905092915050565b6000819050602082019050919050565b612c9a8161246d565b82525050565b6000612cac8383612c91565b60208301905092915050565b6000602082019050919050565b6000612cd082612c65565b612cda8185612c70565b9350612ce583612c81565b8060005b83811015612d16578151612cfd8882612ca0565b9750612d0883612cb8565b925050600181019050612ce9565b5085935050505092915050565b60006020820190508181036000830152612d3d8184612cc5565b905092915050565b600080600060608486031215612d5e57612d5d612405565b5b6000612d6c86828701612458565b935050602084013567ffffffffffffffff811115612d8d57612d8c61240a565b5b612d998682870161294c565b925050604084013567ffffffffffffffff811115612dba57612db961240a565b5b612dc68682870161294c565b9150509250925092565b612dd981612592565b8114612de457600080fd5b50565b600081359050612df681612dd0565b92915050565b60008060408385031215612e1357612e12612405565b5b6000612e2185828601612458565b9250506020612e3285828601612de7565b9150509250929050565b600080fd5b60008083601f840112612e5757612e566125c8565b5b8235905067ffffffffffffffff811115612e7457612e73612e3c565b5b602083019150836001820283011115612e9057612e8f6128de565b5b9250929050565b60008060008060008060a08789031215612eb457612eb3612405565b5b6000612ec289828a01612458565b9650506020612ed389828a0161248e565b9550506040612ee489828a0161248e565b945050606087013567ffffffffffffffff811115612f0557612f0461240a565b5b612f1189828a01612e41565b9350935050608087013567ffffffffffffffff811115612f3457612f3361240a565b5b612f4089828a016129ed565b9150509295509295509295565b60008083601f840112612f6357612f626125c8565b5b8235905067ffffffffffffffff811115612f8057612f7f612e3c565b5b602083019150836020820283011115612f9c57612f9b6128de565b5b9250929050565b60008060008060008060a08789031215612fc057612fbf612405565b5b6000612fce89828a01612458565b965050602087013567ffffffffffffffff811115612fef57612fee61240a565b5b612ffb89828a0161294c565b955050604087013567ffffffffffffffff81111561301c5761301b61240a565b5b61302889828a0161294c565b945050606087013567ffffffffffffffff8111156130495761304861240a565b5b61305589828a01612f4d565b9350935050608087013567ffffffffffffffff8111156130785761307761240a565b5b61308489828a016129ed565b9150509295509295509295565b600080604083850312156130a8576130a7612405565b5b60006130b685828601612458565b92505060206130c785828601612458565b9150509250929050565b600080600080600060a086880312156130ed576130ec612405565b5b60006130fb88828901612458565b955050602061310c88828901612458565b945050604061311d8882890161248e565b935050606061312e8882890161248e565b925050608086013567ffffffffffffffff81111561314f5761314e61240a565b5b61315b888289016129ed565b9150509295509295909350565b60008060006060848603121561318157613180612405565b5b600061318f86828701612458565b93505060206131a08682870161248e565b92505060406131b18682870161248e565b9150509250925092565b7f4e487b7100000000000000000000000000000000000000000000000000000000600052602260045260246000fd5b6000600282049050600182168061320257607f821691505b602082108103613215576132146131bb565b5b50919050565b6132248161242f565b82525050565b600060408201905061323f600083018561321b565b61324c602083018461321b565b9392505050565b600060408201905061326860008301856124e3565b61327560208301846124e3565b9392505050565b7f4e487b7100000000000000000000000000000000000000000000000000000000600052603260045260246000fd5b7f4e487b7100000000000000000000000000000000000000000000000000000000600052601160045260246000fd5b60006132e58261246d565b91507fffffffffffffffffffffffffffffffffffffffffffffffffffffffffffffffff8203613317576133166132ab565b5b600182019050919050565b600082905092915050565b60008190508160005260206000209050919050565b60006020601f8301049050919050565b600082821b905092915050565b60006008830261338f7fffffffffffffffffffffffffffffffffffffffffffffffffffffffffffffffff82613352565b6133998683613352565b95508019841693508086168417925050509392505050565b6000819050919050565b60006133d66133d16133cc8461246d565b6133b1565b61246d565b9050919050565b6000819050919050565b6133f0836133bb565b6134046133fc826133dd565b84845461335f565b825550505050565b600090565b61341961340c565b6134248184846133e7565b505050565b5b818110156134485761343d600082613411565b60018101905061342a565b5050565b601f82111561348d5761345e8161332d565b61346784613342565b81016020851015613476578190505b61348a61348285613342565b830182613429565b50505b505050565b600082821c905092915050565b60006134b060001984600802613492565b1980831691505092915050565b60006134c9838361349f565b9150826002028217905092915050565b6134e38383613322565b67ffffffffffffffff8111156134fc576134fb6125e3565b5b61350682546131ea565b61351182828561344c565b6000601f831160018114613540576000841561352e578287013590505b61353885826134bd565b8655506135a0565b601f19841661354e8661332d565b60005b8281101561357657848901358255600182019150602085019450602081019050613551565b86831015613593578489013561358f601f89168261349f565b8355505b6001600288020188555050505b50505050505050565b600080fd5b600080fd5b600080fd5b600080833560016020038436030381126135d5576135d46135a9565b5b80840192508235915067ffffffffffffffff8211156135f7576135f66135ae565b5b602083019250600182023603831315613613576136126135b3565b5b509250929050565b61362482612784565b67ffffffffffffffff81111561363d5761363c6125e3565b5b61364782546131ea565b61365282828561344c565b600060209050601f8311600181146136855760008415613673578287015190505b61367d85826134bd565b8655506136e5565b601f1984166136938661332d565b60005b828110156136bb57848901518255600182019150602085019450602081019050613696565b868310156136d857848901516136d4601f89168261349f565b8355505b6001600288020188555050505b505050505050565b6000602082019050613702600083018461321b565b92915050565b600060408201905061371d600083018561321b565b61372a6020830184612888565b9392505050565b600081519050919050565b600082825260208201905092915050565b600061375882613731565b613762818561373c565b93506137728185602086016127a0565b61377b816125d2565b840191505092915050565b600060a08201905061379b600083018861321b565b6137a8602083018761321b565b6137b560408301866124e3565b6137c260608301856124e3565b81810360808301526137d4818461374d565b90509695505050505050565b6000815190506137ef81612539565b92915050565b60006020828403121561380b5761380a612405565b5b6000613819848285016137e0565b91505092915050565b600060a082019050613837600083018861321b565b613844602083018761321b565b81810360408301526138568186612cc5565b9050818103606083015261386a8185612cc5565b9050818103608083015261387e818461374d565b90509695505050505050565b60006138958261246d565b91506138a08361246d565b92508282019050808211156138b8576138b76132ab565b5b92915050565b60006080820190506138d3600083018761321b565b6138e060208301866124e3565b6138ed60408301856124e3565b6138fa60608301846124e3565b95945050505050565b6000604082019050818103600083015261391d8185612cc5565b905081810360208301526139318184612cc5565b9050939250505056fea2646970667358221220dce3378075e5f59a3d1977441f6034548d0b4784d8029bbd32b528d363698a8d64736f6c63430008150033",
  "linkReferences": {},
  "deployedLinkReferences": {}
}