{
  "_format": "hh-sol-artifact-1",
  "contractName": "Msical",
  "sourceName": "contracts/Msical.sol",
  "abi": [
    {
      "inputs": [
        {
          "internalType": "address",
          "name": "target",
          "type": "address"
        }
      ],
      "name": "AddressEmptyCode",
      "type": "error"
    },
    {
      "inputs": [
        {
          "internalType": "address",
          "name": "implementation",
          "type": "address"
        }
      ],
      "name": "ERC1967InvalidImplementation",
      "type": "error"
    },
    {
      "inputs": [],
      "name": "ERC1967NonPayable",
      "type": "error"
    },
    {
      "inputs": [],
      "name": "EnforcedPause",
      "type": "error"
    },
    {
      "inputs": [],
      "name": "ExpectedPause",
      "type": "error"
    },
    {
      "inputs": [],
      "name": "FailedInnerCall",
      "type": "error"
    },
    {
      "inputs": [],
      "name": "InvalidInitialization",
      "type": "error"
    },
    {
      "inputs": [],
      "name": "NotInitializing",
      "type": "error"
    },
    {
      "inputs": [
        {
          "internalType": "address",
          "name": "owner",
          "type": "address"
        }
      ],
      "name": "OwnableInvalidOwner",
      "type": "error"
    },
    {
      "inputs": [
        {
          "internalType": "address",
          "name": "account",
          "type": "address"
        }
      ],
      "name": "OwnableUnauthorizedAccount",
      "type": "error"
    },
    {
      "inputs": [],
      "name": "UUPSUnauthorizedCallContext",
      "type": "error"
    },
    {
      "inputs": [
        {
          "internalType": "bytes32",
          "name": "slot",
          "type": "bytes32"
        }
      ],
      "name": "UUPSUnsupportedProxiableUUID",
      "type": "error"
    },
    {
      "anonymous": false,
      "inputs": [
        {
          "indexed": false,
          "internalType": "uint64",
          "name": "version",
          "type": "uint64"
        }
      ],
      "name": "Initialized",
      "type": "event"
    },
    {
      "anonymous": false,
      "inputs": [
        {
          "indexed": true,
          "internalType": "address",
          "name": "previousOwner",
          "type": "address"
        },
        {
          "indexed": true,
          "internalType": "address",
          "name": "newOwner",
          "type": "address"
        }
      ],
      "name": "OwnershipTransferred",
      "type": "event"
    },
    {
      "anonymous": false,
      "inputs": [
        {
          "indexed": false,
          "internalType": "address",
          "name": "account",
          "type": "address"
        }
      ],
      "name": "Paused",
      "type": "event"
    },
    {
      "anonymous": false,
      "inputs": [
        {
          "indexed": false,
          "internalType": "address",
          "name": "account",
          "type": "address"
        }
      ],
      "name": "Unpaused",
      "type": "event"
    },
    {
      "anonymous": false,
      "inputs": [
        {
          "indexed": true,
          "internalType": "address",
          "name": "implementation",
          "type": "address"
        }
      ],
      "name": "Upgraded",
      "type": "event"
    },
    {
      "inputs": [],
      "name": "UPGRADE_INTERFACE_VERSION",
      "outputs": [
        {
          "internalType": "string",
          "name": "",
          "type": "string"
        }
      ],
      "stateMutability": "view",
      "type": "function"
    },
    {
      "inputs": [
        {
          "internalType": "address",
          "name": "account",
          "type": "address"
        }
      ],
      "name": "approveOrganizer",
      "outputs": [],
      "stateMutability": "nonpayable",
      "type": "function"
    },
    {
      "inputs": [
        {
          "internalType": "address",
          "name": "collection",
          "type": "address"
        },
        {
          "internalType": "uint256",
          "name": "eventId",
          "type": "uint256"
        },
        {
          "internalType": "uint256",
          "name": "ticketId",
          "type": "uint256"
        },
        {
          "internalType": "uint256",
          "name": "amount",
          "type": "uint256"
        }
      ],
      "name": "buyTicket",
      "outputs": [],
      "stateMutability": "payable",
      "type": "function"
    },
    {
      "inputs": [
        {
          "components": [
            {
              "internalType": "uint256",
              "name": "capacity",
              "type": "uint256"
            },
            {
              "internalType": "uint256",
              "name": "datetime",
              "type": "uint256"
            },
            {
              "internalType": "string",
              "name": "uri",
              "type": "string"
            }
          ],
          "internalType": "struct CreateEventParams",
          "name": "_createEventParams",
          "type": "tuple"
        },
        {
          "components": [
            {
              "internalType": "uint256",
              "name": "totalSupply",
              "type": "uint256"
            },
            {
              "internalType": "uint256",
              "name": "price",
              "type": "uint256"
            },
            {
              "internalType": "string",
              "name": "uri",
              "type": "string"
            }
          ],
          "internalType": "struct CreateTicketParams[]",
          "name": "_createTicketParams",
          "type": "tuple[]"
        }
      ],
      "name": "createEvent",
      "outputs": [],
      "stateMutability": "nonpayable",
      "type": "function"
    },
    {
      "inputs": [],
      "name": "getAllEvents",
      "outputs": [
        {
          "components": [
            {
              "internalType": "uint256",
              "name": "id",
              "type": "uint256"
            },
            {
              "internalType": "address",
              "name": "creator",
              "type": "address"
            },
            {
              "internalType": "uint256",
              "name": "capacity",
              "type": "uint256"
            },
            {
              "internalType": "uint256",
              "name": "soldQuantity",
              "type": "uint256"
            },
            {
              "internalType": "uint256",
              "name": "datetime",
              "type": "uint256"
            },
            {
              "internalType": "string",
              "name": "uri",
              "type": "string"
            }
          ],
          "internalType": "struct IEvent[]",
          "name": "events",
          "type": "tuple[]"
        },
        {
          "components": [
            {
              "internalType": "uint256",
              "name": "id",
              "type": "uint256"
            },
            {
              "internalType": "uint256",
              "name": "price",
              "type": "uint256"
            },
            {
              "internalType": "uint256",
              "name": "totalSupply",
              "type": "uint256"
            },
            {
              "internalType": "uint256",
              "name": "soldQuantity",
              "type": "uint256"
            },
            {
              "internalType": "string",
              "name": "uri",
              "type": "string"
            }
          ],
          "internalType": "struct ITicket[][]",
          "name": "tickets",
          "type": "tuple[][]"
        }
      ],
      "stateMutability": "view",
      "type": "function"
    },
    {
      "inputs": [],
      "name": "getAllOrganizerDetails",
      "outputs": [
        {
          "components": [
            {
              "internalType": "uint256",
              "name": "status",
              "type": "uint256"
            },
            {
              "internalType": "uint256",
              "name": "nonce",
              "type": "uint256"
            },
            {
              "internalType": "address",
              "name": "account",
              "type": "address"
            },
            {
              "internalType": "string",
              "name": "name",
              "type": "string"
            }
          ],
          "internalType": "struct Organizer[]",
          "name": "result",
          "type": "tuple[]"
        }
      ],
      "stateMutability": "view",
      "type": "function"
    },
    {
      "inputs": [],
      "name": "getAllOrganizers",
      "outputs": [
        {
          "internalType": "address[]",
          "name": "",
          "type": "address[]"
        }
      ],
      "stateMutability": "view",
      "type": "function"
    },
    {
      "inputs": [
        {
          "internalType": "uint256",
          "name": "eventId",
          "type": "uint256"
        }
      ],
      "name": "getEventDetails",
      "outputs": [
        {
          "components": [
            {
              "internalType": "uint256",
              "name": "id",
              "type": "uint256"
            },
            {
              "internalType": "address",
              "name": "creator",
              "type": "address"
            },
            {
              "internalType": "uint256",
              "name": "capacity",
              "type": "uint256"
            },
            {
              "internalType": "uint256",
              "name": "soldQuantity",
              "type": "uint256"
            },
            {
              "internalType": "uint256",
              "name": "datetime",
              "type": "uint256"
            },
            {
              "internalType": "string",
              "name": "uri",
              "type": "string"
            }
          ],
          "internalType": "struct IEvent",
          "name": "eventInfo",
          "type": "tuple"
        },
        {
          "components": [
            {
              "internalType": "uint256",
              "name": "id",
              "type": "uint256"
            },
            {
              "internalType": "uint256",
              "name": "price",
              "type": "uint256"
            },
            {
              "internalType": "uint256",
              "name": "totalSupply",
              "type": "uint256"
            },
            {
              "internalType": "uint256",
              "name": "soldQuantity",
              "type": "uint256"
            },
            {
              "internalType": "string",
              "name": "uri",
              "type": "string"
            }
          ],
          "internalType": "struct ITicket[]",
          "name": "tickets",
          "type": "tuple[]"
        }
      ],
      "stateMutability": "view",
      "type": "function"
    },
    {
      "inputs": [
        {
          "internalType": "address",
          "name": "account",
          "type": "address"
        }
      ],
      "name": "getOrganizerDetail",
      "outputs": [
        {
          "components": [
            {
              "internalType": "uint256",
              "name": "status",
              "type": "uint256"
            },
            {
              "internalType": "uint256",
              "name": "nonce",
              "type": "uint256"
            },
            {
              "internalType": "address",
              "name": "account",
              "type": "address"
            },
            {
              "internalType": "string",
              "name": "name",
              "type": "string"
            }
          ],
          "internalType": "struct Organizer",
          "name": "",
          "type": "tuple"
        }
      ],
      "stateMutability": "view",
      "type": "function"
    },
    {
      "inputs": [
        {
          "internalType": "address",
          "name": "initialOwner",
          "type": "address"
        }
      ],
      "name": "initialize",
      "outputs": [],
      "stateMutability": "nonpayable",
      "type": "function"
    },
    {
      "inputs": [
        {
          "internalType": "address",
          "name": "account",
          "type": "address"
        }
      ],
      "name": "isOrganizer",
      "outputs": [
        {
          "internalType": "bool",
          "name": "",
          "type": "bool"
        }
      ],
      "stateMutability": "view",
      "type": "function"
    },
    {
      "inputs": [],
      "name": "owner",
      "outputs": [
        {
          "internalType": "address",
          "name": "",
          "type": "address"
        }
      ],
      "stateMutability": "view",
      "type": "function"
    },
    {
      "inputs": [],
      "name": "pause",
      "outputs": [],
      "stateMutability": "nonpayable",
      "type": "function"
    },
    {
      "inputs": [],
      "name": "paused",
      "outputs": [
        {
          "internalType": "bool",
          "name": "",
          "type": "bool"
        }
      ],
      "stateMutability": "view",
      "type": "function"
    },
    {
      "inputs": [],
      "name": "proxiableUUID",
      "outputs": [
        {
          "internalType": "bytes32",
          "name": "",
          "type": "bytes32"
        }
      ],
      "stateMutability": "view",
      "type": "function"
    },
    {
      "inputs": [
        {
          "internalType": "string",
          "name": "name",
          "type": "string"
        }
      ],
      "name": "register",
      "outputs": [],
      "stateMutability": "nonpayable",
      "type": "function"
    },
    {
      "inputs": [],
      "name": "renounceOwnership",
      "outputs": [],
      "stateMutability": "nonpayable",
      "type": "function"
    },
    {
      "inputs": [
        {
          "internalType": "address",
          "name": "newOwner",
          "type": "address"
        }
      ],
      "name": "transferOwnership",
      "outputs": [],
      "stateMutability": "nonpayable",
      "type": "function"
    },
    {
      "inputs": [],
      "name": "unpause",
      "outputs": [],
      "stateMutability": "nonpayable",
      "type": "function"
    },
    {
      "inputs": [
        {
          "internalType": "address",
          "name": "newImplementation",
          "type": "address"
        },
        {
          "internalType": "bytes",
          "name": "data",
          "type": "bytes"
        }
      ],
      "name": "upgradeToAndCall",
      "outputs": [],
      "stateMutability": "payable",
      "type": "function"
    },
    {
      "inputs": [],
      "name": "ver5",
      "outputs": [
        {
          "internalType": "string",
          "name": "",
          "type": "string"
        }
      ],
      "stateMutability": "pure",
      "type": "function"
    }
  ],
  "bytecode": "0x60a06040523073ffffffffffffffffffffffffffffffffffffffff1660809073ffffffffffffffffffffffffffffffffffffffff168152503480156200004457600080fd5b50620000556200005b60201b60201c565b620001cf565b60006200006d6200016560201b60201c565b90508060000160089054906101000a900460ff1615620000b9576040517ff92ee8a900000000000000000000000000000000000000000000000000000000815260040160405180910390fd5b67ffffffffffffffff80168160000160009054906101000a900467ffffffffffffffff1667ffffffffffffffff1614620001625767ffffffffffffffff8160000160006101000a81548167ffffffffffffffff021916908367ffffffffffffffff1602179055507fc7f505b2f371ae2175ee4913f4499e1f2633a7b5936321eed1cdaeb6115181d267ffffffffffffffff604051620001599190620001b2565b60405180910390a15b50565b60007ff0c57e16840df040f15088dc2f81fe391c3923bec73e23a9662efc9c229c6a00905090565b600067ffffffffffffffff82169050919050565b620001ac816200018d565b82525050565b6000602082019050620001c96000830184620001a1565b92915050565b608051614057620001f9600039600081816112f50152818161134a015261150501526140576000f3fe60806040526004361061012a5760003560e01c8063ad3cb1cc116100ab578063dec4a88e1161006f578063dec4a88e1461037d578063ec38d5a0146103a6578063f2c298be146103e4578063f2fde38b1461040d578063f94346a014610436578063fb3edbda146104615761012a565b8063ad3cb1cc146102b6578063af183411146102e1578063c27a500d1461030c578063c4d66de814610338578063cd3a15f8146103615761012a565b80635c975abb116100f25780635c975abb146101f55780636e4807b314610220578063715018a61461025d5780638456cb59146102745780638da5cb5b1461028b5761012a565b80631e67f7211461012f5780633f4ba83a1461015a57806341676f15146101715780634f1ef286146101ae57806352d1902d146101ca575b600080fd5b34801561013b57600080fd5b5061014461048a565b6040516101519190612a87565b60405180910390f35b34801561016657600080fd5b5061016f6104aa565b005b34801561017d57600080fd5b5061019860048036038101906101939190612ae9565b6104bc565b6040516101a59190612b31565b60405180910390f35b6101c860048036038101906101c39190612c92565b61055f565b005b3480156101d657600080fd5b506101df61057e565b6040516101ec9190612d07565b60405180910390f35b34801561020157600080fd5b5061020a6105b1565b6040516102179190612b31565b60405180910390f35b34801561022c57600080fd5b5061024760048036038101906102429190612ae9565b6105d6565b6040516102549190612e1d565b60405180910390f35b34801561026957600080fd5b5061027261073a565b005b34801561028057600080fd5b5061028961074e565b005b34801561029757600080fd5b506102a0610760565b6040516102ad9190612e4e565b60405180910390f35b3480156102c257600080fd5b506102cb610798565b6040516102d89190612eb3565b60405180910390f35b3480156102ed57600080fd5b506102f66107d1565b6040516103039190612ffa565b60405180910390f35b34801561031857600080fd5b506103216109f0565b60405161032f929190613361565b60405180910390f35b34801561034457600080fd5b5061035f600480360381019061035a9190612ae9565b610ace565b005b61037b600480360381019061037691906133c4565b610c6d565b005b34801561038957600080fd5b506103a4600480360381019061039f91906134af565b610e79565b005b3480156103b257600080fd5b506103cd60048036038101906103c8919061352b565b610eb2565b6040516103db929190613667565b60405180910390f35b3480156103f057600080fd5b5061040b600480360381019061040691906136f4565b610ed7565b005b34801561041957600080fd5b50610434600480360381019061042f9190612ae9565b611069565b005b34801561044257600080fd5b5061044b6110ef565b6040516104589190612eb3565b60405180910390f35b34801561046d57600080fd5b5061048860048036038101906104839190612ae9565b61112c565b005b60606000610496611140565b90506104a4816000016111a9565b91505090565b6104b26111ca565b6104ba611251565b565b6000806104c7611140565b90506104df83826000016112c390919063ffffffff16565b6104ed57600091505061055a565b600280811115610500576104ff613741565b5b8160020160008573ffffffffffffffffffffffffffffffffffffffff1673ffffffffffffffffffffffffffffffffffffffff168152602001908152602001600020600001541461055457600091505061055a565b60019150505b919050565b6105676112f3565b610570826113d9565b61057a82826113e4565b5050565b6000610588611503565b7f360894a13ba1a3210667c828492db98dca3e2076cc3735a920a3ca505d382bbc60001b905090565b6000806105bc61158a565b90508060000160009054906101000a900460ff1691505090565b6105de6128de565b60006105e8611140565b90508060020160008473ffffffffffffffffffffffffffffffffffffffff1673ffffffffffffffffffffffffffffffffffffffff16815260200190815260200160002060405180608001604052908160008201548152602001600182015481526020016002820160009054906101000a900473ffffffffffffffffffffffffffffffffffffffff1673ffffffffffffffffffffffffffffffffffffffff1673ffffffffffffffffffffffffffffffffffffffff1681526020016003820180546106b09061379f565b80601f01602080910402602001604051908101604052809291908181526020018280546106dc9061379f565b80156107295780601f106106fe57610100808354040283529160200191610729565b820191906000526020600020905b81548152906001019060200180831161070c57829003601f168201915b505050505081525050915050919050565b6107426111ca565b61074c60006115b2565b565b6107566111ca565b61075e611689565b565b60008061076b6116fb565b90508060000160009054906101000a900473ffffffffffffffffffffffffffffffffffffffff1691505090565b6040518060400160405280600581526020017f352e302e3000000000000000000000000000000000000000000000000000000081525081565b606060006107dd611140565b905060006107ed826000016111a9565b90506000815190508067ffffffffffffffff81111561080f5761080e612b67565b5b60405190808252806020026020018201604052801561084857816020015b6108356128de565b81526020019060019003908161082d5790505b50935060005b818110156109e95783600201600084838151811061086f5761086e6137d0565b5b602002602001015173ffffffffffffffffffffffffffffffffffffffff1673ffffffffffffffffffffffffffffffffffffffff16815260200190815260200160002060405180608001604052908160008201548152602001600182015481526020016002820160009054906101000a900473ffffffffffffffffffffffffffffffffffffffff1673ffffffffffffffffffffffffffffffffffffffff1673ffffffffffffffffffffffffffffffffffffffff1681526020016003820180546109369061379f565b80601f01602080910402602001604051908101604052809291908181526020018280546109629061379f565b80156109af5780601f10610984576101008083540402835291602001916109af565b820191906000526020600020905b81548152906001019060200180831161099257829003601f168201915b5050505050815250508582815181106109cb576109ca6137d0565b5b602002602001018190525080806109e19061382e565b91505061084e565b5050505090565b6060806109fb611723565b91506000825190508067ffffffffffffffff811115610a1d57610a1c612b67565b5b604051908082528060200260200182016040528015610a5057816020015b6060815260200190600190039081610a3b5790505b50915060005b81811015610ac8576000848281518110610a7357610a726137d0565b5b602002602001015190506000816000015190506000610a9182611930565b905080868581518110610aa757610aa66137d0565b5b60200260200101819052505050508080610ac09061382e565b915050610a56565b50509091565b6000610ad8611b47565b905060008160000160089054906101000a900460ff1615905060008260000160009054906101000a900467ffffffffffffffff1690506000808267ffffffffffffffff16148015610b265750825b9050600060018367ffffffffffffffff16148015610b5b575060003073ffffffffffffffffffffffffffffffffffffffff163b145b905081158015610b69575080155b15610ba0576040517ff92ee8a900000000000000000000000000000000000000000000000000000000815260040160405180910390fd5b60018560000160006101000a81548167ffffffffffffffff021916908367ffffffffffffffff1602179055508315610bf05760018560000160086101000a81548160ff0219169083151502179055505b610bf8611b6f565b610c0186611b81565b610c09611b95565b8315610c655760008560000160086101000a81548160ff0219169083151502179055507fc7f505b2f371ae2175ee4913f4499e1f2633a7b5936321eed1cdaeb6115181d26001604051610c5c91906138cf565b60405180910390a15b505050505050565b6000610c7884611b9f565b90506000610c8584611ceb565b90508160800151421115610c9857600080fd5b828160200151610ca891906138ea565b3414610cb357600080fd5b81606001518260400151610cc7919061392c565b831115610cd357600080fd5b80606001518160400151610ce7919061392c565b831115610cf357600080fd5b816020015173ffffffffffffffffffffffffffffffffffffffff163373ffffffffffffffffffffffffffffffffffffffff1603610d2f57600080fd5b610d3d826000015184611de1565b610d4b816000015184611e21565b6000826020015173ffffffffffffffffffffffffffffffffffffffff1634604051610d7590613991565b60006040518083038185875af1925050503d8060008114610db2576040519150601f19603f3d011682016040523d82523d6000602084013e610db7565b606091505b5050905080610dfb576040517f08c379a0000000000000000000000000000000000000000000000000000000008152600401610df2906139f2565b60405180910390fd5b8673ffffffffffffffffffffffffffffffffffffffff1663a4b645eb33878786608001516040518563ffffffff1660e01b8152600401610e3e9493929190613a55565b600060405180830381600087803b158015610e5857600080fd5b505af1158015610e6c573d6000803e3d6000fd5b5050505050505050505050565b610e82336104bc565b610e8b57600080fd5b6000610e9f84610e9a90613bdf565b611e61565b9050610eac818484611f97565b50505050565b610eba61291c565b6060610ec583611b9f565b9150610ed083611930565b9050915091565b6000610ee1611140565b9050610ef933826000016112c390919063ffffffff16565b15610f0357600080fd5b6000604051806080016040528060016002811115610f2457610f23613741565b5b8152602001600081526020013373ffffffffffffffffffffffffffffffffffffffff16815260200185858080601f016020809104026020016040519081016040528093929190818152602001838380828437600081840152601f19601f820116905080830192505050505050508152509050610fac33836000016120ec90919063ffffffff16565b50808260020160003373ffffffffffffffffffffffffffffffffffffffff1673ffffffffffffffffffffffffffffffffffffffff168152602001908152602001600020600082015181600001556020820151816001015560408201518160020160006101000a81548173ffffffffffffffffffffffffffffffffffffffff021916908373ffffffffffffffffffffffffffffffffffffffff160217905550606082015181600301908161105f9190613d94565b5090505050505050565b6110716111ca565b600073ffffffffffffffffffffffffffffffffffffffff168173ffffffffffffffffffffffffffffffffffffffff16036110e35760006040517f1e4fbdf70000000000000000000000000000000000000000000000000000000081526004016110da9190612e4e565b60405180910390fd5b6110ec816115b2565b50565b60606040518060400160405280600481526020017f7665723500000000000000000000000000000000000000000000000000000000815250905090565b6111346111ca565b61113d8161211c565b50565b60008060ff60001b1960017fe563a415f16e56c8c9881d84fc518305f6e6904f8e1db381524c6baed047992860001c611179919061392c565b6040516020016111899190613e66565b604051602081830303815290604052805190602001201690508091505090565b606060006111b983600001612209565b905060608190508092505050919050565b6111d2612265565b73ffffffffffffffffffffffffffffffffffffffff166111f0610760565b73ffffffffffffffffffffffffffffffffffffffff161461124f57611213612265565b6040517f118cdaa70000000000000000000000000000000000000000000000000000000081526004016112469190612e4e565b60405180910390fd5b565b61125961226d565b600061126361158a565b905060008160000160006101000a81548160ff0219169083151502179055507f5db9ee0a495bf2e6ff9c91a7834c1ba4fdd244a5e8aa4e537bd38aeae4b073aa6112ab612265565b6040516112b89190612e4e565b60405180910390a150565b60006112eb836000018373ffffffffffffffffffffffffffffffffffffffff1660001b6122ad565b905092915050565b7f000000000000000000000000000000000000000000000000000000000000000073ffffffffffffffffffffffffffffffffffffffff163073ffffffffffffffffffffffffffffffffffffffff1614806113a057507f000000000000000000000000000000000000000000000000000000000000000073ffffffffffffffffffffffffffffffffffffffff166113876122d0565b73ffffffffffffffffffffffffffffffffffffffff1614155b156113d7576040517fe07c8dba00000000000000000000000000000000000000000000000000000000815260040160405180910390fd5b565b6113e16111ca565b50565b8173ffffffffffffffffffffffffffffffffffffffff166352d1902d6040518163ffffffff1660e01b8152600401602060405180830381865afa92505050801561144c57506040513d601f19601f820116820180604052508101906114499190613ead565b60015b61148d57816040517f4c9c8ce30000000000000000000000000000000000000000000000000000000081526004016114849190612e4e565b60405180910390fd5b7f360894a13ba1a3210667c828492db98dca3e2076cc3735a920a3ca505d382bbc60001b81146114f457806040517faa1d49a40000000000000000000000000000000000000000000000000000000081526004016114eb9190612d07565b60405180910390fd5b6114fe8383612327565b505050565b7f000000000000000000000000000000000000000000000000000000000000000073ffffffffffffffffffffffffffffffffffffffff163073ffffffffffffffffffffffffffffffffffffffff1614611588576040517fe07c8dba00000000000000000000000000000000000000000000000000000000815260040160405180910390fd5b565b60007fcd5ed15c6e187e77e9aee88184c21f4f2182ab5827cb3b7e07fbedcd63f03300905090565b60006115bc6116fb565b905060008160000160009054906101000a900473ffffffffffffffffffffffffffffffffffffffff169050828260000160006101000a81548173ffffffffffffffffffffffffffffffffffffffff021916908373ffffffffffffffffffffffffffffffffffffffff1602179055508273ffffffffffffffffffffffffffffffffffffffff168173ffffffffffffffffffffffffffffffffffffffff167f8be0079c531659141344cd1fd0a4f28419497f9722a3daafe3b4186f6b6457e060405160405180910390a3505050565b61169161239a565b600061169b61158a565b905060018160000160006101000a81548160ff0219169083151502179055507f62e78cea01bee320cd4e420270b5ea74000d11b0c9f74754ebdbfc544b05a2586116e3612265565b6040516116f09190612e4e565b60405180910390a150565b60007f9016d09d72d40fdae2fd8ceac6b6234c7706214fd39c1cd1e609a0528c199300905090565b6060600061172f6123db565b9050600061173f82600001612444565b90506000815190508067ffffffffffffffff81111561176157611760612b67565b5b60405190808252806020026020018201604052801561179a57816020015b61178761291c565b81526020019060019003908161177f5790505b50935060005b818110156119295760008382815181106117bd576117bc6137d0565b5b602002602001015190508460020160008281526020019081526020016000206040518060c0016040529081600082015481526020016001820160009054906101000a900473ffffffffffffffffffffffffffffffffffffffff1673ffffffffffffffffffffffffffffffffffffffff1673ffffffffffffffffffffffffffffffffffffffff1681526020016002820154815260200160038201548152602001600482015481526020016005820180546118759061379f565b80601f01602080910402602001604051908101604052809291908181526020018280546118a19061379f565b80156118ee5780601f106118c3576101008083540402835291602001916118ee565b820191906000526020600020905b8154815290600101906020018083116118d157829003601f168201915b50505050508152505086838151811061190a576119096137d0565b5b60200260200101819052505080806119219061382e565b9150506117a0565b5050505090565b6060600061193c612465565b9050600081600001600085815260200190815260200160002080548060200260200160405190810160405280929190818152602001828054801561199f57602002820191906000526020600020905b81548152602001906001019080831161198b575b505050505090506000815190508067ffffffffffffffff8111156119c6576119c5612b67565b5b6040519080825280602002602001820160405280156119ff57816020015b6119ec612968565b8152602001906001900390816119e45790505b50935060005b81811015611b3e576000838281518110611a2257611a216137d0565b5b6020026020010151905060008560010160008381526020019081526020016000206040518060a001604052908160008201548152602001600182015481526020016002820154815260200160038201548152602001600482018054611a869061379f565b80601f0160208091040260200160405190810160405280929190818152602001828054611ab29061379f565b8015611aff5780601f10611ad457610100808354040283529160200191611aff565b820191906000526020600020905b815481529060010190602001808311611ae257829003601f168201915b505050505081525050905080878481518110611b1e57611b1d6137d0565b5b602002602001018190525050508080611b369061382e565b915050611a05565b50505050919050565b60007ff0c57e16840df040f15088dc2f81fe391c3923bec73e23a9662efc9c229c6a00905090565b611b776124ce565b611b7f61250e565b565b611b896124ce565b611b9281612542565b50565b611b9d6124ce565b565b611ba761291c565b6000611bb16123db565b90508060020160008481526020019081526020016000206040518060c0016040529081600082015481526020016001820160009054906101000a900473ffffffffffffffffffffffffffffffffffffffff1673ffffffffffffffffffffffffffffffffffffffff1673ffffffffffffffffffffffffffffffffffffffff168152602001600282015481526020016003820154815260200160048201548152602001600582018054611c619061379f565b80601f0160208091040260200160405190810160405280929190818152602001828054611c8d9061379f565b8015611cda5780601f10611caf57610100808354040283529160200191611cda565b820191906000526020600020905b815481529060010190602001808311611cbd57829003601f168201915b505050505081525050915050919050565b611cf3612968565b6000611cfd612465565b90508060010160008481526020019081526020016000206040518060a001604052908160008201548152602001600182015481526020016002820154815260200160038201548152602001600482018054611d579061379f565b80601f0160208091040260200160405190810160405280929190818152602001828054611d839061379f565b8015611dd05780601f10611da557610100808354040283529160200191611dd0565b820191906000526020600020905b815481529060010190602001808311611db357829003601f168201915b505050505081525050915050919050565b6000611deb6123db565b9050818160020160008581526020019081526020016000206003016000828254611e159190613eda565b92505081905550505050565b6000611e2b612465565b9050818160010160008581526020019081526020016000206003016000828254611e559190613eda565b92505081905550505050565b600080611e6c6123db565b90508060030160008154611e7f9061382e565b9190508190559150611e9d82826000016125c890919063ffffffff16565b5060006040518060c001604052808481526020013373ffffffffffffffffffffffffffffffffffffffff16815260200185600001518152602001600081526020018560200151815260200185604001518152509050808260020160008581526020019081526020016000206000820151816000015560208201518160010160006101000a81548173ffffffffffffffffffffffffffffffffffffffff021916908373ffffffffffffffffffffffffffffffffffffffff16021790555060408201518160020155606082015181600301556080820151816004015560a0820151816005019081611f8c9190613d94565b509050505050919050565b6000611fa1612465565b9050600083839050905060005b818110156120e4576000858583818110611fcb57611fca6137d0565b5b9050602002810190611fdd9190613f13565b611fe690613fbb565b905060008460020160008154611ffb9061382e565b919050819055905084600001600089815260200190815260200160002081908060018154018082558091505060019003906000526020600020016000909190919091505560006040518060a0016040528083815260200184602001518152602001846000015181526020016000815260200184604001518152509050808660010160008481526020019081526020016000206000820151816000015560208201518160010155604082015181600201556060820151816003015560808201518160040190816120ca9190613d94565b5090505050505080806120dc9061382e565b915050611fae565b505050505050565b6000612114836000018373ffffffffffffffffffffffffffffffffffffffff1660001b6125e2565b905092915050565b6000612126611140565b905061213e82826000016112c390919063ffffffff16565b61214757600080fd5b6001600281111561215b5761215a613741565b5b8160020160008473ffffffffffffffffffffffffffffffffffffffff1673ffffffffffffffffffffffffffffffffffffffff16815260200190815260200160002060000154146121aa57600080fd5b6002808111156121bd576121bc613741565b5b8160020160008473ffffffffffffffffffffffffffffffffffffffff1673ffffffffffffffffffffffffffffffffffffffff168152602001908152602001600020600001819055505050565b60608160000180548060200260200160405190810160405280929190818152602001828054801561225957602002820191906000526020600020905b815481526020019060010190808311612245575b50505050509050919050565b600033905090565b6122756105b1565b6122ab576040517f8dfc202b00000000000000000000000000000000000000000000000000000000815260040160405180910390fd5b565b600080836001016000848152602001908152602001600020541415905092915050565b60006122fe7f360894a13ba1a3210667c828492db98dca3e2076cc3735a920a3ca505d382bbc60001b612652565b60000160009054906101000a900473ffffffffffffffffffffffffffffffffffffffff16905090565b6123308261265c565b8173ffffffffffffffffffffffffffffffffffffffff167fbc7cd75a20ee27fd9adebab32041f755214dbc6bffa90cc0225b39da2e5c2d3b60405160405180910390a260008151111561238d576123878282612729565b50612396565b6123956127ad565b5b5050565b6123a26105b1565b156123d9576040517fd93c066500000000000000000000000000000000000000000000000000000000815260040160405180910390fd5b565b60008060ff60001b1960017fb817b91c01ceb4dad04608c5ac224a8591c1963c58b3fe79a0725a494508a5d960001c612414919061392c565b6040516020016124249190613e66565b604051602081830303815290604052805190602001201690508091505090565b6060600061245483600001612209565b905060608190508092505050919050565b60008060ff60001b1960017f5918f4300dd5faed3cbcf8bb9be6655e02c2279a88e74e37d528e1ebe154d8bf60001c61249e919061392c565b6040516020016124ae9190613e66565b604051602081830303815290604052805190602001201690508091505090565b6124d66127ea565b61250c576040517fd7e6bcf800000000000000000000000000000000000000000000000000000000815260040160405180910390fd5b565b6125166124ce565b600061252061158a565b905060008160000160006101000a81548160ff02191690831515021790555050565b61254a6124ce565b600073ffffffffffffffffffffffffffffffffffffffff168173ffffffffffffffffffffffffffffffffffffffff16036125bc5760006040517f1e4fbdf70000000000000000000000000000000000000000000000000000000081526004016125b39190612e4e565b60405180910390fd5b6125c5816115b2565b50565b60006125da836000018360001b6125e2565b905092915050565b60006125ee83836122ad565b61264757826000018290806001815401808255809150506001900390600052602060002001600090919091909150558260000180549050836001016000848152602001908152602001600020819055506001905061264c565b600090505b92915050565b6000819050919050565b60008173ffffffffffffffffffffffffffffffffffffffff163b036126b857806040517f4c9c8ce30000000000000000000000000000000000000000000000000000000081526004016126af9190612e4e565b60405180910390fd5b806126e57f360894a13ba1a3210667c828492db98dca3e2076cc3735a920a3ca505d382bbc60001b612652565b60000160006101000a81548173ffffffffffffffffffffffffffffffffffffffff021916908373ffffffffffffffffffffffffffffffffffffffff16021790555050565b60606000808473ffffffffffffffffffffffffffffffffffffffff1684604051612753919061400a565b600060405180830381855af49150503d806000811461278e576040519150601f19603f3d011682016040523d82523d6000602084013e612793565b606091505b50915091506127a385838361280a565b9250505092915050565b60003411156127e8576040517fb398979f00000000000000000000000000000000000000000000000000000000815260040160405180910390fd5b565b60006127f4611b47565b60000160089054906101000a900460ff16905090565b60608261281f5761281a82612899565b612891565b60008251148015612847575060008473ffffffffffffffffffffffffffffffffffffffff163b145b1561288957836040517f9996b3150000000000000000000000000000000000000000000000000000000081526004016128809190612e4e565b60405180910390fd5b819050612892565b5b9392505050565b6000815111156128ac5780518082602001fd5b6040517f1425ea4200000000000000000000000000000000000000000000000000000000815260040160405180910390fd5b60405180608001604052806000815260200160008152602001600073ffffffffffffffffffffffffffffffffffffffff168152602001606081525090565b6040518060c0016040528060008152602001600073ffffffffffffffffffffffffffffffffffffffff168152602001600081526020016000815260200160008152602001606081525090565b6040518060a0016040528060008152602001600081526020016000815260200160008152602001606081525090565b600081519050919050565b600082825260208201905092915050565b6000819050602082019050919050565b600073ffffffffffffffffffffffffffffffffffffffff82169050919050565b60006129ee826129c3565b9050919050565b6129fe816129e3565b82525050565b6000612a1083836129f5565b60208301905092915050565b6000602082019050919050565b6000612a3482612997565b612a3e81856129a2565b9350612a49836129b3565b8060005b83811015612a7a578151612a618882612a04565b9750612a6c83612a1c565b925050600181019050612a4d565b5085935050505092915050565b60006020820190508181036000830152612aa18184612a29565b905092915050565b6000604051905090565b600080fd5b600080fd5b612ac6816129e3565b8114612ad157600080fd5b50565b600081359050612ae381612abd565b92915050565b600060208284031215612aff57612afe612ab3565b5b6000612b0d84828501612ad4565b91505092915050565b60008115159050919050565b612b2b81612b16565b82525050565b6000602082019050612b466000830184612b22565b92915050565b600080fd5b600080fd5b6000601f19601f8301169050919050565b7f4e487b7100000000000000000000000000000000000000000000000000000000600052604160045260246000fd5b612b9f82612b56565b810181811067ffffffffffffffff82111715612bbe57612bbd612b67565b5b80604052505050565b6000612bd1612aa9565b9050612bdd8282612b96565b919050565b600067ffffffffffffffff821115612bfd57612bfc612b67565b5b612c0682612b56565b9050602081019050919050565b82818337600083830152505050565b6000612c35612c3084612be2565b612bc7565b905082815260208101848484011115612c5157612c50612b51565b5b612c5c848285612c13565b509392505050565b600082601f830112612c7957612c78612b4c565b5b8135612c89848260208601612c22565b91505092915050565b60008060408385031215612ca957612ca8612ab3565b5b6000612cb785828601612ad4565b925050602083013567ffffffffffffffff811115612cd857612cd7612ab8565b5b612ce485828601612c64565b9150509250929050565b6000819050919050565b612d0181612cee565b82525050565b6000602082019050612d1c6000830184612cf8565b92915050565b6000819050919050565b612d3581612d22565b82525050565b600081519050919050565b600082825260208201905092915050565b60005b83811015612d75578082015181840152602081019050612d5a565b60008484015250505050565b6000612d8c82612d3b565b612d968185612d46565b9350612da6818560208601612d57565b612daf81612b56565b840191505092915050565b6000608083016000830151612dd26000860182612d2c565b506020830151612de56020860182612d2c565b506040830151612df860408601826129f5565b5060608301518482036060860152612e108282612d81565b9150508091505092915050565b60006020820190508181036000830152612e378184612dba565b905092915050565b612e48816129e3565b82525050565b6000602082019050612e636000830184612e3f565b92915050565b600082825260208201905092915050565b6000612e8582612d3b565b612e8f8185612e69565b9350612e9f818560208601612d57565b612ea881612b56565b840191505092915050565b60006020820190508181036000830152612ecd8184612e7a565b905092915050565b600081519050919050565b600082825260208201905092915050565b6000819050602082019050919050565b6000608083016000830151612f196000860182612d2c565b506020830151612f2c6020860182612d2c565b506040830151612f3f60408601826129f5565b5060608301518482036060860152612f578282612d81565b9150508091505092915050565b6000612f708383612f01565b905092915050565b6000602082019050919050565b6000612f9082612ed5565b612f9a8185612ee0565b935083602082028501612fac85612ef1565b8060005b85811015612fe85784840389528151612fc98582612f64565b9450612fd483612f78565b925060208a01995050600181019050612fb0565b50829750879550505050505092915050565b600060208201905081810360008301526130148184612f85565b905092915050565b600081519050919050565b600082825260208201905092915050565b6000819050602082019050919050565b600060c0830160008301516130606000860182612d2c565b50602083015161307360208601826129f5565b5060408301516130866040860182612d2c565b5060608301516130996060860182612d2c565b5060808301516130ac6080860182612d2c565b5060a083015184820360a08601526130c48282612d81565b9150508091505092915050565b60006130dd8383613048565b905092915050565b6000602082019050919050565b60006130fd8261301c565b6131078185613027565b93508360208202850161311985613038565b8060005b85811015613155578484038952815161313685826130d1565b9450613141836130e5565b925060208a0199505060018101905061311d565b50829750879550505050505092915050565b600081519050919050565b600082825260208201905092915050565b6000819050602082019050919050565b600081519050919050565b600082825260208201905092915050565b6000819050602082019050919050565b600060a0830160008301516131d76000860182612d2c565b5060208301516131ea6020860182612d2c565b5060408301516131fd6040860182612d2c565b5060608301516132106060860182612d2c565b50608083015184820360808601526132288282612d81565b9150508091505092915050565b600061324183836131bf565b905092915050565b6000602082019050919050565b600061326182613193565b61326b818561319e565b93508360208202850161327d856131af565b8060005b858110156132b9578484038952815161329a8582613235565b94506132a583613249565b925060208a01995050600181019050613281565b50829750879550505050505092915050565b60006132d78383613256565b905092915050565b6000602082019050919050565b60006132f782613167565b6133018185613172565b93508360208202850161331385613183565b8060005b8581101561334f578484038952815161333085826132cb565b945061333b836132df565b925060208a01995050600181019050613317565b50829750879550505050505092915050565b6000604082019050818103600083015261337b81856130f2565b9050818103602083015261338f81846132ec565b90509392505050565b6133a181612d22565b81146133ac57600080fd5b50565b6000813590506133be81613398565b92915050565b600080600080608085870312156133de576133dd612ab3565b5b60006133ec87828801612ad4565b94505060206133fd878288016133af565b935050604061340e878288016133af565b925050606061341f878288016133af565b91505092959194509250565b600080fd5b6000606082840312156134465761344561342b565b5b81905092915050565b600080fd5b600080fd5b60008083601f84011261346f5761346e612b4c565b5b8235905067ffffffffffffffff81111561348c5761348b61344f565b5b6020830191508360208202830111156134a8576134a7613454565b5b9250929050565b6000806000604084860312156134c8576134c7612ab3565b5b600084013567ffffffffffffffff8111156134e6576134e5612ab8565b5b6134f286828701613430565b935050602084013567ffffffffffffffff81111561351357613512612ab8565b5b61351f86828701613459565b92509250509250925092565b60006020828403121561354157613540612ab3565b5b600061354f848285016133af565b91505092915050565b600060c0830160008301516135706000860182612d2c565b50602083015161358360208601826129f5565b5060408301516135966040860182612d2c565b5060608301516135a96060860182612d2c565b5060808301516135bc6080860182612d2c565b5060a083015184820360a08601526135d48282612d81565b9150508091505092915050565b600082825260208201905092915050565b60006135fd82613193565b61360781856135e1565b935083602082028501613619856131af565b8060005b8581101561365557848403895281516136368582613235565b945061364183613249565b925060208a0199505060018101905061361d565b50829750879550505050505092915050565b600060408201905081810360008301526136818185613558565b9050818103602083015261369581846135f2565b90509392505050565b60008083601f8401126136b4576136b3612b4c565b5b8235905067ffffffffffffffff8111156136d1576136d061344f565b5b6020830191508360018202830111156136ed576136ec613454565b5b9250929050565b6000806020838503121561370b5761370a612ab3565b5b600083013567ffffffffffffffff81111561372957613728612ab8565b5b6137358582860161369e565b92509250509250929050565b7f4e487b7100000000000000000000000000000000000000000000000000000000600052602160045260246000fd5b7f4e487b7100000000000000000000000000000000000000000000000000000000600052602260045260246000fd5b600060028204905060018216806137b757607f821691505b6020821081036137ca576137c9613770565b5b50919050565b7f4e487b7100000000000000000000000000000000000000000000000000000000600052603260045260246000fd5b7f4e487b7100000000000000000000000000000000000000000000000000000000600052601160045260246000fd5b600061383982612d22565b91507fffffffffffffffffffffffffffffffffffffffffffffffffffffffffffffffff820361386b5761386a6137ff565b5b600182019050919050565b6000819050919050565b600067ffffffffffffffff82169050919050565b6000819050919050565b60006138b96138b46138af84613876565b613894565b613880565b9050919050565b6138c98161389e565b82525050565b60006020820190506138e460008301846138c0565b92915050565b60006138f582612d22565b915061390083612d22565b925082820261390e81612d22565b91508282048414831517613925576139246137ff565b5b5092915050565b600061393782612d22565b915061394283612d22565b925082820390508181111561395a576139596137ff565b5b92915050565b600081905092915050565b50565b600061397b600083613960565b91506139868261396b565b600082019050919050565b600061399c8261396e565b9150819050919050565b7f5472616e73666572206661696c65640000000000000000000000000000000000600082015250565b60006139dc600f83612e69565b91506139e7826139a6565b602082019050919050565b60006020820190508181036000830152613a0b816139cf565b9050919050565b613a1b81612d22565b82525050565b600082825260208201905092915050565b6000613a3f600083613a21565b9150613a4a8261396b565b600082019050919050565b600060a082019050613a6a6000830187612e3f565b613a776020830186613a12565b613a846040830185613a12565b8181036060830152613a968184612e7a565b90508181036080830152613aa981613a32565b905095945050505050565b600080fd5b600080fd5b600067ffffffffffffffff821115613ad957613ad8612b67565b5b613ae282612b56565b9050602081019050919050565b6000613b02613afd84613abe565b612bc7565b905082815260208101848484011115613b1e57613b1d612b51565b5b613b29848285612c13565b509392505050565b600082601f830112613b4657613b45612b4c565b5b8135613b56848260208601613aef565b91505092915050565b600060608284031215613b7557613b74613ab4565b5b613b7f6060612bc7565b90506000613b8f848285016133af565b6000830152506020613ba3848285016133af565b602083015250604082013567ffffffffffffffff811115613bc757613bc6613ab9565b5b613bd384828501613b31565b60408301525092915050565b6000613beb3683613b5f565b9050919050565b60008190508160005260206000209050919050565b60006020601f8301049050919050565b600082821b905092915050565b600060088302613c547fffffffffffffffffffffffffffffffffffffffffffffffffffffffffffffffff82613c17565b613c5e8683613c17565b95508019841693508086168417925050509392505050565b6000613c91613c8c613c8784612d22565b613894565b612d22565b9050919050565b6000819050919050565b613cab83613c76565b613cbf613cb782613c98565b848454613c24565b825550505050565b600090565b613cd4613cc7565b613cdf818484613ca2565b505050565b5b81811015613d0357613cf8600082613ccc565b600181019050613ce5565b5050565b601f821115613d4857613d1981613bf2565b613d2284613c07565b81016020851015613d31578190505b613d45613d3d85613c07565b830182613ce4565b50505b505050565b600082821c905092915050565b6000613d6b60001984600802613d4d565b1980831691505092915050565b6000613d848383613d5a565b9150826002028217905092915050565b613d9d82612d3b565b67ffffffffffffffff811115613db657613db5612b67565b5b613dc0825461379f565b613dcb828285613d07565b600060209050601f831160018114613dfe5760008415613dec578287015190505b613df68582613d78565b865550613e5e565b601f198416613e0c86613bf2565b60005b82811015613e3457848901518255600182019150602085019450602081019050613e0f565b86831015613e515784890151613e4d601f891682613d5a565b8355505b6001600288020188555050505b505050505050565b6000602082019050613e7b6000830184613a12565b92915050565b613e8a81612cee565b8114613e9557600080fd5b50565b600081519050613ea781613e81565b92915050565b600060208284031215613ec357613ec2612ab3565b5b6000613ed184828501613e98565b91505092915050565b6000613ee582612d22565b9150613ef083612d22565b9250828201905080821115613f0857613f076137ff565b5b92915050565b600080fd5b600082356001606003833603038112613f2f57613f2e613f0e565b5b80830191505092915050565b600060608284031215613f5157613f50613ab4565b5b613f5b6060612bc7565b90506000613f6b848285016133af565b6000830152506020613f7f848285016133af565b602083015250604082013567ffffffffffffffff811115613fa357613fa2613ab9565b5b613faf84828501613b31565b60408301525092915050565b6000613fc73683613f3b565b9050919050565b600081519050919050565b6000613fe482613fce565b613fee8185613960565b9350613ffe818560208601612d57565b80840191505092915050565b60006140168284613fd9565b91508190509291505056fea26469706673582212200d72af3aa9c55f5781ddf71d60d615052b9e4d0790ec9e0089b41aad5081b22664736f6c63430008150033",
  "linkReferences": {},
  "deployedLinkReferences": {}
}